{
  "_format": "hh-sol-artifact-1",
  "contractName": "TicTacToe",
  "sourceName": "contracts/TicTacToe.sol",
  "abi": [
    {
      "anonymous": false,
      "inputs": [
        {
          "indexed": false,
          "internalType": "uint256",
          "name": "gameId",
          "type": "uint256"
        },
        {
          "indexed": false,
          "internalType": "address",
          "name": "player1",
          "type": "address"
        }
      ],
      "name": "GameCreated",
      "type": "event"
    },
    {
      "anonymous": false,
      "inputs": [
        {
          "indexed": false,
          "internalType": "uint256",
          "name": "gameId",
          "type": "uint256"
        },
        {
          "indexed": false,
          "internalType": "enum TicTacToe.GameResult",
          "name": "result",
          "type": "uint8"
        }
      ],
      "name": "GameFinished",
      "type": "event"
    },
    {
      "anonymous": false,
      "inputs": [
        {
          "indexed": false,
          "internalType": "uint256",
          "name": "gameId",
          "type": "uint256"
        },
        {
          "indexed": false,
          "internalType": "address",
          "name": "player2",
          "type": "address"
        }
      ],
      "name": "GameJoined",
      "type": "event"
    },
    {
      "anonymous": false,
      "inputs": [
        {
          "indexed": false,
          "internalType": "uint256",
          "name": "gameId",
          "type": "uint256"
        },
        {
          "indexed": false,
          "internalType": "address",
          "name": "player",
          "type": "address"
        },
        {
          "indexed": false,
          "internalType": "uint8",
          "name": "position",
          "type": "uint8"
        }
      ],
      "name": "MoveMade",
      "type": "event"
    },
    {
      "inputs": [],
      "name": "createGame",
      "outputs": [
        {
          "internalType": "uint256",
          "name": "",
          "type": "uint256"
        }
      ],
      "stateMutability": "nonpayable",
      "type": "function"
    },
    {
      "inputs": [],
      "name": "gameCounter",
      "outputs": [
        {
          "internalType": "uint256",
          "name": "",
          "type": "uint256"
        }
      ],
      "stateMutability": "view",
      "type": "function"
    },
    {
      "inputs": [
        {
          "internalType": "uint256",
          "name": "",
          "type": "uint256"
        }
      ],
      "name": "games",
      "outputs": [
        {
          "internalType": "address",
          "name": "player1",
          "type": "address"
        },
        {
          "internalType": "address",
          "name": "player2",
          "type": "address"
        },
        {
          "internalType": "address",
          "name": "nextPlayer",
          "type": "address"
        },
        {
          "internalType": "enum TicTacToe.GameState",
          "name": "state",
          "type": "uint8"
        },
        {
          "internalType": "enum TicTacToe.GameResult",
          "name": "result",
          "type": "uint8"
        },
        {
          "internalType": "uint256",
          "name": "createdAt",
          "type": "uint256"
        }
      ],
      "stateMutability": "view",
      "type": "function"
    },
    {
      "inputs": [
        {
          "internalType": "uint256",
          "name": "gameId",
          "type": "uint256"
        }
      ],
      "name": "getGameInfo",
      "outputs": [
        {
          "internalType": "address",
          "name": "player1",
          "type": "address"
        },
        {
          "internalType": "address",
          "name": "player2",
          "type": "address"
        },
        {
          "internalType": "address",
          "name": "nextPlayer",
          "type": "address"
        },
        {
          "internalType": "uint8[9]",
          "name": "board",
          "type": "uint8[9]"
        },
        {
          "internalType": "enum TicTacToe.GameState",
          "name": "state",
          "type": "uint8"
        },
        {
          "internalType": "enum TicTacToe.GameResult",
          "name": "result",
          "type": "uint8"
        }
      ],
      "stateMutability": "view",
      "type": "function"
    },
    {
      "inputs": [
        {
          "internalType": "uint256",
          "name": "gameId",
          "type": "uint256"
        }
      ],
      "name": "joinGame",
      "outputs": [],
      "stateMutability": "nonpayable",
      "type": "function"
    },
    {
      "inputs": [
        {
          "internalType": "uint256",
          "name": "gameId",
          "type": "uint256"
        },
        {
          "internalType": "uint8",
          "name": "position",
          "type": "uint8"
        }
      ],
      "name": "makeMove",
      "outputs": [],
      "stateMutability": "nonpayable",
      "type": "function"
    }
  ],
  "bytecode": "0x6080604052348015600f57600080fd5b506119578061001f6000396000f3fe608060405234801561001057600080fd5b50600436106100625760003560e01c8063117a5b90146100675780632e0be39a1461009c57806347e1d550146100ba5780637255d729146100ef5780637fd6f7c41461010d578063efaa55a014610129575b600080fd5b610081600480360381019061007c919061112c565b610145565b60405161009396959493929190611268565b60405180910390f35b6100a46101fb565b6040516100b191906112c9565b60405180910390f35b6100d460048036038101906100cf919061112c565b610201565b6040516100e69695949392919061139c565b60405180910390f35b6100f7610339565b60405161010491906112c9565b60405180910390f35b6101276004803603810190610122919061142c565b6104d3565b005b610143600480360381019061013e919061112c565b6109ad565b005b60006020528060005260406000206000915090508060000160009054906101000a900473ffffffffffffffffffffffffffffffffffffffff16908060010160009054906101000a900473ffffffffffffffffffffffffffffffffffffffff16908060020160009054906101000a900473ffffffffffffffffffffffffffffffffffffffff16908060040160009054906101000a900460ff16908060040160019054906101000a900460ff16908060050154905086565b60015481565b600080600061020e6110ce565b600080600080600089815260200190815260200160002090508060000160009054906101000a900473ffffffffffffffffffffffffffffffffffffffff168160010160009054906101000a900473ffffffffffffffffffffffffffffffffffffffff168260020160009054906101000a900473ffffffffffffffffffffffffffffffffffffffff16836003018460040160009054906101000a900460ff168560040160019054906101000a900460ff168260098060200260405190810160405280929190826009801561031c576020028201916000905b82829054906101000a900460ff1660ff16815260200190600101906020826000010492830192600103820291508084116102e55790505b505050505092509650965096509650965096505091939550919395565b6000806001600081548092919061034f9061149b565b9190505590503360008083815260200190815260200160002060000160006101000a81548173ffffffffffffffffffffffffffffffffffffffff021916908373ffffffffffffffffffffffffffffffffffffffff1602179055503360008083815260200190815260200160002060020160006101000a81548173ffffffffffffffffffffffffffffffffffffffff021916908373ffffffffffffffffffffffffffffffffffffffff160217905550600080600083815260200190815260200160002060040160006101000a81548160ff021916908360028111156104365761043561119a565b5b0217905550600080600083815260200190815260200160002060040160016101000a81548160ff021916908360038111156104745761047361119a565b5b021790555042600080838152602001908152602001600020600501819055507fc3e0f84839dc888c892a013d10c8f9d6dc05a21a879d0ce468ca558013e9121c81336040516104c49291906114e3565b60405180910390a18091505090565b60008060008481526020019081526020016000209050600160028111156104fd576104fc61119a565b5b8160040160009054906101000a900460ff1660028111156105215761052061119a565b5b14610561576040517f08c379a000000000000000000000000000000000000000000000000000000000815260040161055890611569565b60405180910390fd5b8060020160009054906101000a900473ffffffffffffffffffffffffffffffffffffffff1673ffffffffffffffffffffffffffffffffffffffff163373ffffffffffffffffffffffffffffffffffffffff16146105f3576040517f08c379a00000000000000000000000000000000000000000000000000000000081526004016105ea906115d5565b60405180910390fd5b60098260ff1610610639576040517f08c379a000000000000000000000000000000000000000000000000000000000815260040161063090611641565b60405180910390fd5b6000816003018360ff166009811061065457610653611661565b5b602091828204019190069054906101000a900460ff1660ff16146106ad576040517f08c379a00000000000000000000000000000000000000000000000000000000081526004016106a4906116dc565b60405180910390fd5b60008160000160009054906101000a900473ffffffffffffffffffffffffffffffffffffffff1673ffffffffffffffffffffffffffffffffffffffff163373ffffffffffffffffffffffffffffffffffffffff161461070d576002610710565b60015b905080826003018460ff166009811061072c5761072b611661565b5b602091828204019190066101000a81548160ff021916908360ff16021790555060006107bc836003016009806020026040519081016040528092919082600980156107b2576020028201916000905b82829054906101000a900460ff1660ff168152602001906001019060208260000104928301926001038202915080841161077b5790505b5050505050610c0d565b9050600060038111156107d2576107d161119a565b5b8160038111156107e5576107e461119a565b5b146108815760028360040160006101000a81548160ff021916908360028111156108125761081161119a565b5b0217905550808360040160016101000a81548160ff0219169083600381111561083e5761083d61119a565b5b02179055507f68385227a15d4c8b0102f32af285874cc22f99ac24ca21b5e45451166bac7af585826040516108749291906116fc565b60405180910390a161096b565b8260000160009054906101000a900473ffffffffffffffffffffffffffffffffffffffff1673ffffffffffffffffffffffffffffffffffffffff163373ffffffffffffffffffffffffffffffffffffffff1614610902578260000160009054906101000a900473ffffffffffffffffffffffffffffffffffffffff16610928565b8260010160009054906101000a900473ffffffffffffffffffffffffffffffffffffffff165b8360020160006101000a81548173ffffffffffffffffffffffffffffffffffffffff021916908373ffffffffffffffffffffffffffffffffffffffff1602179055505b7f2e609ae07cc76b1b2b76d7ada4250d5191a8eb5eb7e19181c23c5da8e9643ad185338660405161099e93929190611734565b60405180910390a15050505050565b60008060008381526020019081526020016000209050600073ffffffffffffffffffffffffffffffffffffffff168160000160009054906101000a900473ffffffffffffffffffffffffffffffffffffffff1673ffffffffffffffffffffffffffffffffffffffff1603610a56576040517f08c379a0000000000000000000000000000000000000000000000000000000008152600401610a4d906117b7565b60405180910390fd5b60006002811115610a6a57610a6961119a565b5b8160040160009054906101000a900460ff166002811115610a8e57610a8d61119a565b5b14610ace576040517f08c379a0000000000000000000000000000000000000000000000000000000008152600401610ac590611823565b60405180910390fd5b8060000160009054906101000a900473ffffffffffffffffffffffffffffffffffffffff1673ffffffffffffffffffffffffffffffffffffffff163373ffffffffffffffffffffffffffffffffffffffff1603610b60576040517f08c379a0000000000000000000000000000000000000000000000000000000008152600401610b579061188f565b60405180910390fd5b338160010160006101000a81548173ffffffffffffffffffffffffffffffffffffffff021916908373ffffffffffffffffffffffffffffffffffffffff16021790555060018160040160006101000a81548160ff02191690836002811115610bcb57610bca61119a565b5b02179055507f45c4f9cbafe186141862608c493f28b823fde4c2142bedc3f5169961a73fdd228233604051610c019291906114e3565b60405180910390a15050565b600080600090505b60038160ff161015610d8257600083600383610c3191906118af565b60ff1660098110610c4557610c44611661565b5b602002015160ff1614158015610cb85750826001600383610c6691906118af565b610c7091906118ec565b60ff1660098110610c8457610c83611661565b5b602002015160ff1683600383610c9a91906118af565b60ff1660098110610cae57610cad611661565b5b602002015160ff16145b8015610d2d5750826002600383610ccf91906118af565b610cd991906118ec565b60ff1660098110610ced57610cec611661565b5b602002015160ff16836001600384610d0591906118af565b610d0f91906118ec565b60ff1660098110610d2357610d22611661565b5b602002015160ff16145b15610d7557600183600383610d4291906118af565b60ff1660098110610d5657610d55611661565b5b602002015160ff1614610d6a576002610d6d565b60015b9150506110c9565b8080600101915050610c15565b5060005b60038160ff161015610eab576000838260ff1660098110610daa57610da9611661565b5b602002015160ff1614158015610e05575082600382610dc991906118ec565b60ff1660098110610ddd57610ddc611661565b5b602002015160ff16838260ff1660098110610dfb57610dfa611661565b5b602002015160ff16145b8015610e62575082600682610e1a91906118ec565b60ff1660098110610e2e57610e2d611661565b5b602002015160ff1683600383610e4491906118ec565b60ff1660098110610e5857610e57611661565b5b602002015160ff16145b15610e9e576001838260ff1660098110610e7f57610e7e611661565b5b602002015160ff1614610e93576002610e96565b60015b9150506110c9565b8080600101915050610d86565b50600082600060098110610ec257610ec1611661565b5b602002015160ff1614158015610f0d575081600460098110610ee757610ee6611661565b5b602002015160ff1682600060098110610f0357610f02611661565b5b602002015160ff16145b8015610f4e575081600860098110610f2857610f27611661565b5b602002015160ff1682600460098110610f4457610f43611661565b5b602002015160ff16145b15610f8757600182600060098110610f6957610f68611661565b5b602002015160ff1614610f7d576002610f80565b60015b90506110c9565b600082600260098110610f9d57610f9c611661565b5b602002015160ff1614158015610fe8575081600460098110610fc257610fc1611661565b5b602002015160ff1682600260098110610fde57610fdd611661565b5b602002015160ff16145b801561102957508160066009811061100357611002611661565b5b602002015160ff168260046009811061101f5761101e611661565b5b602002015160ff16145b156110625760018260026009811061104457611043611661565b5b602002015160ff161461105857600261105b565b60015b90506110c9565b60006001905060005b60098160ff1610156110b2576000848260ff166009811061108f5761108e611661565b5b602002015160ff16036110a557600091506110b2565b808060010191505061106b565b5080156110c35760039150506110c9565b60009150505b919050565b604051806101200160405280600990602082028036833780820191505090505090565b600080fd5b6000819050919050565b611109816110f6565b811461111457600080fd5b50565b60008135905061112681611100565b92915050565b600060208284031215611142576111416110f1565b5b600061115084828501611117565b91505092915050565b600073ffffffffffffffffffffffffffffffffffffffff82169050919050565b600061118482611159565b9050919050565b61119481611179565b82525050565b7f4e487b7100000000000000000000000000000000000000000000000000000000600052602160045260246000fd5b600381106111da576111d961119a565b5b50565b60008190506111eb826111c9565b919050565b60006111fb826111dd565b9050919050565b61120b816111f0565b82525050565b600481106112225761122161119a565b5b50565b600081905061123382611211565b919050565b600061124382611225565b9050919050565b61125381611238565b82525050565b611262816110f6565b82525050565b600060c08201905061127d600083018961118b565b61128a602083018861118b565b611297604083018761118b565b6112a46060830186611202565b6112b1608083018561124a565b6112be60a0830184611259565b979650505050505050565b60006020820190506112de6000830184611259565b92915050565b600060099050919050565b600081905092915050565b6000819050919050565b600060ff82169050919050565b61131a81611304565b82525050565b600061132c8383611311565b60208301905092915050565b6000602082019050919050565b61134e816112e4565b61135881846112ef565b9250611363826112fa565b8060005b8381101561139457815161137b8782611320565b965061138683611338565b925050600181019050611367565b505050505050565b60006101c0820190506113b2600083018961118b565b6113bf602083018861118b565b6113cc604083018761118b565b6113d96060830186611345565b6113e7610180830185611202565b6113f56101a083018461124a565b979650505050505050565b61140981611304565b811461141457600080fd5b50565b60008135905061142681611400565b92915050565b60008060408385031215611443576114426110f1565b5b600061145185828601611117565b925050602061146285828601611417565b9150509250929050565b7f4e487b7100000000000000000000000000000000000000000000000000000000600052601160045260246000fd5b60006114a6826110f6565b91507fffffffffffffffffffffffffffffffffffffffffffffffffffffffffffffffff82036114d8576114d761146c565b5b600182019050919050565b60006040820190506114f86000830185611259565b611505602083018461118b565b9392505050565b600082825260208201905092915050565b7f47616d65206973206e6f74206163746976650000000000000000000000000000600082015250565b600061155360128361150c565b915061155e8261151d565b602082019050919050565b6000602082019050818103600083015261158281611546565b9050919050565b7f4e6f7420796f7572207475726e00000000000000000000000000000000000000600082015250565b60006115bf600d8361150c565b91506115ca82611589565b602082019050919050565b600060208201905081810360008301526115ee816115b2565b9050919050565b7f496e76616c696420706f736974696f6e00000000000000000000000000000000600082015250565b600061162b60108361150c565b9150611636826115f5565b602082019050919050565b6000602082019050818103600083015261165a8161161e565b9050919050565b7f4e487b7100000000000000000000000000000000000000000000000000000000600052603260045260246000fd5b7f506f736974696f6e20616c72656164792074616b656e00000000000000000000600082015250565b60006116c660168361150c565b91506116d182611690565b602082019050919050565b600060208201905081810360008301526116f5816116b9565b9050919050565b60006040820190506117116000830185611259565b61171e602083018461124a565b9392505050565b61172e81611304565b82525050565b60006060820190506117496000830186611259565b611756602083018561118b565b6117636040830184611725565b949350505050565b7f47616d6520646f6573206e6f7420657869737400000000000000000000000000600082015250565b60006117a160138361150c565b91506117ac8261176b565b602082019050919050565b600060208201905081810360008301526117d081611794565b9050919050565b7f47616d652063616e6e6f74206265206a6f696e65640000000000000000000000600082015250565b600061180d60158361150c565b9150611818826117d7565b602082019050919050565b6000602082019050818103600083015261183c81611800565b9050919050565b7f43616e6e6f7420706c617920616761696e737420796f757273656c6600000000600082015250565b6000611879601c8361150c565b915061188482611843565b602082019050919050565b600060208201905081810360008301526118a88161186c565b9050919050565b60006118ba82611304565b91506118c583611304565b92508282026118d381611304565b91508082146118e5576118e461146c565b5b5092915050565b60006118f782611304565b915061190283611304565b9250828201905060ff81111561191b5761191a61146c565b5b9291505056fea2646970667358221220591574cbd79a26263819bb2688bcaf4636b863389374322620d047807e85798164736f6c634300081c0033",
  "linkReferences": {},
  "deployedLinkReferences": {}
}